:100000000A128A11FC2F00308A000408840A820731
:100010000034013400340A34003464340034E834E9
:0C002000033410342734253464340034D9
:1009000000300A128A119E240A128A1101300A123A
:100910008A119E240A128A1108008316031788017F
:1009200089018316031386018701880189018312D7
:10093000031386018701880189010800F3008312EF
:100940000313081173080A128A11F5240A128A1176
:100950008312031388150B30F2006230F100F10BA3
:10096000AF2CF20BAF2C0000831203138811080088
:100970008316031305148316031708148312031335
:100980001F179F13831603131F129F129F138312A7
:1009900003131F119F111F129F121F144230F000EA
:1009A000F00BD02C00000800F800F601F701E92C4C
:1009B00076087807F5007508840000080A128A1185
:1009C00017250A128A110130F6070318F70A0030BA
:1009D000F70776087807F500750884008313000888
:1009E000031DF32CF42CD82C0800F000701CF92CFB
:1009F000FA2CFE2C831203130816012D8312031305
:100A00000812F01C042D052D072D8816082D8812BC
:100A1000701D0B2D0C2D0E2D08170F2D0813F01D1A
:100A2000122D132D152D8817162D88130800F4008C
:100A300074080F39F2007408F039F30083120313BD
:100A400008157308F10004300310F10CFF3E031D7C
:100A5000242D71080A128A11F5240A128A118312B0
:100A6000031388151A30F100F10B342D00008312A6
:100A70000313881172080A128A11F5240A128A11C6
:100A80008312031388151A30F100F10B452D000075
:100A90008312031388110800780879040319512D73
:100AA000522D812DFD01FD0A602D01300310F80D3E
:100AB000F90DFF3E031D562D0130FC007C08FD079B
:100AC000F91F632D642D552D79087B02031D6A2DB6
:100AD00078087A02031C6D2D6E2D742D7808FA02A9
:100AE0007908031CFB03FB0201300310F90CF80C1E
:100AF000FF3E031D752D0130FD02031D802D812D4C
:100B0000642D7B08F9007A08F8000800F501F60169
:100B10007008710403198D2D8E2DC52DF701F70A6C
:100B20009C2D01300310F00DF10DFF3E031D922DA1
:100B30000130F4007408F707F11F9F2DA02D912DAF
:100B400001300310F50DF60DFF3E031DA12D7108B8
:100B50007302031DAD2D70087202031CB02DB12D60
:100B6000B82D7008F2027108031CF303F302751428
:100B700001300310F10CF00CFF3E031DB92D0130C4
:100B8000F702031DC42DC52DA02D7608F1007508B0
:100B9000F0000800F6007603031DCF2DD02DED2DBB
:100BA00074087F3EF9007908F50004300310F50C55
:100BB000FF3E031DD62D7508F70079080F39F800A0
:100BC00077080A128A119E240A128A1178080A12DA
:100BD0008A119E240A128A110F2E02307606031DF6
:100BE000F22DF32D0F2E7408BF3EF9007908F500A1
:100BF00004300310F50CFF3E031DF92D7508F700B6
:100C000079080F39F80077080A128A119E240A120F
:100C10008A1178080A128A119E240A128A11080081
:100C20000A128A118D240A128A110830F00000304D
:100C3000F1000A128A11C0260A128A110A128A11B8
:100C4000B8240A128A110A128A1163260A128A111A
:100C5000831203139F149F182E2E2F2E2B2E0C134E
:100C60001A3083120313AE00F730AD00AD0B362EF1
:100C7000AE0B362E3B2E0B3083120313A0001E0842
:100C8000AD00AE012D08A1002E08A2002F300A12DF
:100C90008A1122270A128A110A128A1180240A1242
:100CA0008A11F401F40A01300A128A11CA250A12C3
:100CB0008A112F300A128A11D4240A128A11282E7E
:100CC0000A128A11002800300A128A11F5240A1229
:100CD0008A113430F500F130F400F40B6D2EF50B71
:100CE0006D2E722E03300A128A119E240A128A1166
:100CF0000D30F500FB30F400F40B7C2EF50B7C2E50
:100D0000812E03300A128A119E240A128A111D3084
:100D1000F5009130F400F40B8B2EF50B8B2E033085
:100D20000A128A119E240A128A1102300A128A11AA
:100D30009E240A128A1102300A128A119E240A1273
:100D40008A1108300A128A119E240A128A11003070
:100D50000A128A119E240A128A110C300A128A1170
:100D60009E240A128A1100300A128A119E240A1245
:100D70008A1106300A128A119E240A128A1108006A
:100D80007D3070067104031DC62EC72ECE2E83162D
:100D900003130F088F3910388F000F14FA307006C4
:100DA0007104031DD42ED52EDC2E831603130F08D9
:100DB0008F3920388F000F14F4307006031DE42E95
:100DC0007103031DE42EE52EEC2E831603130F088A
:100DD0008F3930388F000F1470037104031DF12E0A
:100DE000F22EF92E831603130F088F3940388F0027
:100DF0000F14023070067104031DFF2E002F072F01
:100E0000831603130F088F3950388F000F140430E6
:100E100070067104031D0D2F0E2F152F831603135B
:100E20000F088F3960388F000F1408307006710476
:100E3000031D1B2F1C2F212F7030831603138F04CB
:100E40000F14080083120313AB002130A600E72F14
:100E500025302C0603192D2F2E2F382F2B08840018
:100E60002C08831380000130A3002308AB07E72F71
:100E7000A7010130A007FF30200784000A128A1161
:100E800003200A128A11AC00A300A4012408003A2E
:100E900003194B2FE72F2308003A0319F72F643A61
:100EA0000319562F0D3A0319562FE72F26088400F1
:100EB00083130008A900840A0008AA000230A300D6
:100EC0002308A607AA1F652F662F6F2F0330A300E4
:100ED0002308A704A909AA09A90A0319AA0AAC01A7
:100EE000AC0A2C08A3002307013E84000A128A11D1
:100EF00003200A128A11A4000A128A1103200A127E
:100F00008A11A50025082A02031D882F240829021A
:100F100003188B2F8C2F8D2F972F0130A3002308C0
:100F2000AC0705302C06031D962F972F712F27082D
:100F3000033903199C2F9D2FA62F2B0884002D30D9
:100F4000831380000130A3002308AB072C08A800FE
:100F5000DE2F0A30F8000030F9002808A30023072C
:100F6000013E84000A128A1103200A128A11F0003D
:100F70000A128A1103200A128A11F1002A08F300CA
:100F80002908F2000A128A1186250A128A117108AC
:100F9000FB007008FA000A128A114C250A128A1105
:100FA0007808303E83120313AC002B0884002C0811
:100FB000831380000130A3002308AB07FF30A30098
:100FC0002308A807280A031DE62FE72FA92F0130C1
:100FD000A007FF30200784000A128A1103200A129A
:100FE0008A11AC002C08031DF62FF72F282F2B0891
:100FF000840083138001080083010A128A11102ED5
:08400000FF3FFF3FFF3FFF3FC0
:04400E00D420FF3F7C
:00000001FF
