:100000000A128A11FC2FFF1B0D2883137F188317F8
:100010000008840A0319FF0A080000308A00040857
:10002000840A82070034013400340A340034643412
:100030000034E834033410342734533431343A3440
:100040000034533432343A340034253464340034C8
:10078A0000300A128A11E3230A128A1101300A126E
:10079A008A11E3230A128A110800831603178801B3
:1007AA00890183160313860187018801890183124F
:1007BA00031386018701880189010800F300831267
:1007CA000313081173080A128A11FD230A128A11E7
:1007DA008312031388150B30F2006230F100F10B1B
:1007EA00F42BF20BF42B0000831203138811080078
:1007FA00F000701C012C022C062C8312031308161D
:10080A00092C831203130812F01C0C2C0D2C0F2C2C
:10081A008816102C8812701D132C142C162C0817ED
:10082A00172C0813F01D1A2C1B2C1D2C88171E2C94
:10083A0088130800F1007108031D242C252C2B2C89
:10084A008316031305148316031708147103031D73
:10085A002F2C302C362C831603138514831603177A
:10086A008814831203131F179F13831603131F126F
:10087A009F129F13831203131F119F111F129F129E
:10088A001F144230F000F00B482C00000800F4005E
:10089A0074080F39F2007408F039F3008312031355
:1008AA0008157308F10004300310F10CFF3E031D14
:1008BA00592C71080A128A11FD230A128A1183120D
:1008CA00031388151A30F100F10B692C000083120A
:1008DA000313881172080A128A11FD230A128A1157
:1008EA008312031388151A30F100F10B7A2C0000D9
:1008FA008312031388110800780879040319862CD7
:10090A00872CB62CFD01FD0A952C01300310F80D39
:10091A00F90DFF3E031D8B2C0130FC007C08FD07FE
:10092A00F91F982C992C8A2C79087B02031D9F2C7D
:10093A0078087A02031CA22CA32CA92C7808FA02A4
:10094A007908031CFB03FB0201300310F90CF80CB5
:10095A00FF3E031DAA2C0130FD02031DB52CB62C47
:10096A00992C7B08F9007A08F8000800FA01FB01C3
:10097A00E02C7A087507F8007608F7000318F70ADA
:10098A00FA1FC82CF7037708F900790883120313B2
:10099A00FF00780884000A128A1103200A128A11B9
:1009AA000A128A114C240A128A110130FA07031812
:1009BA00FB0A0030FB077A087507F8007608F7008B
:1009CA000318F70AFA1FEA2CF7037708F9007908DF
:1009DA0083120313FF00780884000A128A11032085
:1009EA000A128A11003A031DFB2CFC2CBE2C0800AB
:1009FA00F2007208031D022D032D1D2DC330831230
:100A0A0003139F054230F000F00B092D00008312FA
:100A1A0003139F149F18122D132D0F2D0C131A3028
:100A2A00F100F830F000F00B182DF10B182D000032
:100A3A007203031D212D222D3E2D831203131F083D
:100A4A00C33904389F004230F000F00B2A2D000011
:100A5A00831203139F149F18332D342D302D0C133A
:100A6A001A30F100F830F000F00B392DF10B392D66
:100A7A0000000800F501F601700871040319462DFB
:100A8A00472D7E2DF701F70A552D01300310F00D81
:100A9A00F10DFF3E031D4B2D0130F4007408F707DA
:100AAA00F11F582D592D4A2D01300310F50DF60D61
:100ABA00FF3E031D5A2D71087302031D662D70082F
:100ACA007202031C692D6A2D712D7008F2027108D9
:100ADA00031CF303F302751401300310F10CF00C3C
:100AEA00FF3E031D722D0130F702031D7D2D7E2D61
:100AFA00592D7608F1007508F0000800F600760313
:100B0A00031D882D892DA62D74087F3EF9007908CA
:100B1A00F50004300310F50CFF3E031D8F2D7508F8
:100B2A00F70079080F39F80077080A128A11E323C7
:100B3A000A128A1178080A128A11E3230A128A1100
:100B4A00C82D02307606031DAB2DAC2DC82D7408B6
:100B5A00BF3EF9007908F50004300310F50CFF3E9A
:100B6A00031DB22D7508F70079080F39F8007708C8
:100B7A000A128A11E3230A128A1178080A128A11C0
:100B8A00E3230A128A11080000300A128A11FD238F
:100B9A000A128A113430F500F130F400F40BD32D27
:100BAA00F50BD32DD82D03300A128A11E3230A122A
:100BBA008A110D30F500FB30F400F40BE22DF50B31
:100BCA00E22DE72D03300A128A11E3230A128A1151
:100BDA001D30F5009130F400F40BF12DF50BF12DD9
:100BEA0003300A128A11E3230A128A1102300A1206
:100BFA008A11E3230A128A1102300A128A11E323A4
:100C0A000A128A1108300A128A11E3230A128A1177
:100C1A0000300A128A11E3230A128A110C300A12CE
:100C2A008A11E3230A128A1100300A128A11E32375
:100C3A000A128A1106300A128A11E3230A128A1149
:100C4A0008007D3070067104031D2C2E2D2E342EC3
:100C5A00831603130F088F3910388F000F14FA30D8
:100C6A0070067104031D3A2E3B2E422E831603137F
:100C7A000F088F3920388F000F14F4307006031DC7
:100C8A004A2E7103031D4A2E4B2E522E831603132E
:100C9A000F088F3930388F000F1470037104031D49
:100CAA00572E582E5F2E831603130F088F3940389C
:100CBA008F000F14023070067104031D652E662E14
:100CCA006D2E831603130F088F3950388F000F14B7
:100CDA00043070067104031D732E742E7B2E831646
:100CEA0003130F088F3960388F000F14083070060D
:100CFA007104031D812E822E872E703083160313F2
:100D0A008F040F1408000A128A11D2230A128A11B8
:100D1A000830F0000030F1000A128A1126260A1261
:100D2A008A1100300A128A111F240A128A1101300C
:100D3A000A128A111F240A128A110A128A11C92553
:100D4A000A128A110A128A11C5230A128A11033059
:100D5A00F40001300A128A1183250A128A110B3013
:100D6A00F5008030F6000A128A11BB240A128A1191
:100D7A000730F40001300A128A1183250A128A11F7
:100D8A000F30F5008030F6000A128A11BB240A12CD
:100D9A008A1100300A128A11FD240A128A111330AC
:100DAA0083120313A0001E08AD00AE012D08A10096
:100DBA002E08A2002F300A128A1122270A128A113B
:100DCA000330F40002300A128A1183250A128A11AA
:100DDA002F30F5000030F6000A128A11BB240A12DD
:100DEA008A1101300A128A11FD240A128A1113305B
:100DFA0083120313A0001E08AD00AE012D08A10046
:100E0A002E08A20032300A128A1122270A128A11E7
:100E1A000730F40002300A128A1183250A128A1155
:100E2A003230F5000030F6000A128A11BB240A1289
:100E3A008A11A72E0A128A11002883120313AB0003
:100E4A002130A600E72F25302C0603192D2F2E2F2F
:100E5A00382F2B0884002C08831380000130A3004C
:100E6A002308AB07E72FA7010130A007FF302007AF
:100E7A0084000A128A110D200A128A11AC00A300FA
:100E8A00A4012408003A03194B2FE72F2308003A3C
:100E9A000319F72F643A0319562F0D3A0319562FDF
:100EAA00E72F2608840083130008A900840A000893
:100EBA00AA000230A3002308A607AA1F652F662FDF
:100ECA006F2F0330A3002308A704A909AA09A90AB6
:100EDA000319AA0AAC01AC0A2C08A3002307013E95
:100EEA0084000A128A110D200A128A11A4000A1219
:100EFA008A110D200A128A11A50025082A02031D4B
:100F0A00882F2408290203188B2F8C2F8D2F972FB7
:100F1A000130A3002308AC0705302C06031D962FC9
:100F2A00972F712F2708033903199C2F9D2FA62F5E
:100F3A002B0884002D30831380000130A30023087E
:100F4A00AB072C08A800DE2F0A30F8000030F900A1
:100F5A002808A3002307013E84000A128A110D20E3
:100F6A000A128A11F0000A128A110D200A128A1135
:100F7A00F1002A08F3002908F2000A128A113F2513
:100F8A000A128A117108FB007008FA000A128A1103
:100F9A0081240A128A117808303E83120313AC00A6
:100FAA002B0884002C08831380000130A300230837
:100FBA00AB07FF30A3002308A807280A031DE62F62
:100FCA00E72FA92F0130A007FF30200784000A125B
:100FDA008A110D200A128A11AC002C08031DF62F63
:100FEA00F72F282F2B088400831380010800830120
:060FFA000A128A11882E84
:08400000FF3FFF3FFF3FFF3FC0
:04400E00D420FF3F7C
:00000001FF
