:060000000A128A11FC2F18
:10000A00730872047104700403190C280D280F2850
:10001A008030F3060800F601F11F142815281C2861
:10002A00F009F109F00A0319F10AF601F60AF31FB9
:10003A001F2820282928F209F309F20A0319F30ACA
:10004A000130F4007408F606F701F801700871042B
:10005A000319302831286828F501F50A3F280130AC
:10006A000310F00DF10DFF3E031D35280130F40099
:10007A007408F507F11F4228432834280130031079
:10008A00F70DF80DFF3E031D442871087302031D86
:10009A00502870087202031C532854285B287008E1
:1000AA00F2027108031CF303F30277140130031000
:1000BA00F10CF00CFF3E031D5C280130F502031D14
:1000CA00672868284328760803196C286D2872283F
:1000DA00F709F809F70A0319F80A7808F100770806
:1000EA00F000080083160313C100A130AE00E72F09
:1000FA00253042060319822883288D284108840066
:10010A004208831380000130A5002508C107E72FA4
:10011A00AF01B001200884000A168A150A200A12C3
:10012A008A112E3A031D9A289B28E028301701309D
:10013A00A5002508A007BF01C001CF280A30F0009A
:10014A000030F100831603134008F3003F08F20061
:10015A000A168A1592210A128A1171088316031344
:10016A00C0007008BF00200884000A168A150A20F9
:10017A000A128A11D03EA500FF3003180030A600EB
:10018A002508BF070318C00A2608C0070130A500C2
:10019A002508A007200884000A168A150A200A12D0
:1001AA008A110A168A15F8200A128A110318DE28FB
:1001BA00DF28A328E628BF01C0013016E62830153B
:1001CA000829013083160313A007FF302007840093
:1001DA000A168A150A200A128A11C200A500A60167
:1001EA002608003A0319FA28E72F2508003A0319C6
:1001FA00F72F643A03190829023A0319E4280F3A37
:10020A0003190829E72F00302F05A500073030050C
:10021A00A60025082604031913291429C52E301E01
:10022A00172918291C290630BF000030C0002E08E3
:10023A00840083130008BB00840A0008BC00840AF7
:10024A000008BD00840A0008BE000430A500250885
:10025A00AE073E08F3003D08F2003C08F1003B08F7
:10026A00F0000030F7000030F6000030F5000030F2
:10027A00F4000A128A1502200A128A110318462962
:10028A0047296429831603133E08F3003D08F20048
:10029A003C08F1003B08F0000A128A1105200A12F4
:1002AA008A11730883160313BE007208BD00710811
:1002BA00BC007008BB000330AF040030B0048316E2
:1002CA000313B101B2013E08F3003D08F2003C08F5
:1002DA00F1003B08F0000030F7000030F600003073
:1002EA00F5000030F4000A168A154B230A128A1107
:1002FA00031880298129712A0310831603133D0DDF
:10030A003E0D823EB100FF3003180030B200FF30CC
:10031A00B1070318B20AFF30B2070330F000003009
:10032A00F1003208F3003108F2000A168A15922108
:10033A000A128A11710883160313B2007008B100F9
:10034A000A30F0000030F1003208F3003108F20000
:10035A000A128A1110200A128A11710883160313CD
:10036A00B2007008B100B21FBB29BC29C229FF30F4
:10037A00B1070318B20AFF30B2073103FF3A0A1273
:10038A008A15A1240A128A11831203133F088316BD
:10039A000313B600831203133E0883160313B50032
:1003AA00831203133D0883160313B4008312031345
:1003BA003C0883160313B3003E0883120313A500F7
:1003CA00831603133D0883120313A4008316031331
:1003DA003C0883120313A300831603133B088312FA
:1003EA000313A20083160313360883120313A9000A
:1003FA0083160313350883120313A8008316031305
:10040A00340883120313A7008316031333088312D5
:10041A000313A6000A128A155C210A128A11831292
:10042A000313250883160313B60083120313240843
:10043A0083160313B50083120313230883160313C9
:10044A00B40083120313220883160313B300360879
:10045A00F3003508F2003408F1003308F0003F30A9
:10046A00F7008030F6000030F5000030F4000A1280
:10047A008A1502200A128A110318442A452A4E2A8A
:10048A00FF3083160313B1070318B20AFF30B2070D
:10049A00712A831603133608F3003508F20034086C
:1004AA00F1003308F0004130F7002030F600003048
:1004BA00F5000030F4000A128A1502200A128A1185
:1004CA00031C682A692A712A013083160313B107AB
:1004DA000318B20A0030B207831603134008803AA1
:1004EA00FF0080307F02031D7C2A0D303F02031873
:1004FA007F2A802AC72A831603133F080A168A11FD
:10050A003C210A128A11831203133F08D3003E08C2
:10051A00D2003D08D1003C08D000831603133E08E0
:10052A0083120313D700831603133D0883120313A0
:10053A00D600831603133C0883120313D5008316CF
:10054A0003133B0883120313D4000A168A114723A4
:10055A000A128A1183120313530883160313BE0067
:10056A0083120313520883160313BD008312031365
:10057A00510883160313BC00831203135008831611
:10058A000313BB00831603133208803AFF0080303E
:10059A007F02031DD22A0A3031020318D52AD62A2D
:1005AA00272B831603133E08F3003D08F2003C088C
:1005BA00F1003B08F0000030F7000030F600003090
:1005CA00F5000030F4000A168A154B230A128A1124
:1005DA000318F02AF12A992B831603133E08831273
:1005EA000313D200831603133D0883120313D100A9
:1005FA00831603133C0883120313D00083160313D4
:10060A003B0883120313CF000A168A110C200A1220
:10061A008A11831203135208510450044F04031D14
:10062A00172B182B992B831603133208803AFF00D5
:10063A0080307F02031D232B02303102031C262B3C
:10064A00272B992B831603133608F3003508F2007B
:10065A003408F1003308F0004030F7008930F60022
:10066A007030F5005F30F4000A128A1502200A126F
:10067A008A110318412B422B4B2BF7308316031395
:10068A00B1070318B20AFF30B207532BF8308316AA
:10069A000313B1070318B20AFF30B20731080A126E
:1006AA008A15A1240A128A11831203133F0883169A
:1006BA000313B600831203133E0883160313B5000F
:1006CA00831203133D0883160313B4008312031322
:1006DA003C0883160313B3003E08F3003D08F200FA
:1006EA003C08F1003B08F0003608F7003508F60030
:1006FA003408F5003308F4000A128A15A4200A12F5
:10070A008A11730883160313BA007208B9007108B4
:10071A00B8007008B7000030BE000030BD000030DD
:10072A00BC000030BB001D2C831603133E08831245
:10073A000313D200831603133D0883120313D10057
:10074A00831603133C0883120313D0008316031382
:10075A003B0883120313CF000A168A110C200A12CF
:10076A008A1183120313520883160313BA008312E1
:10077A000313510883160313B90083120313500895
:10078A0083160313B800831203134F088316031347
:10079A00B7003A08F3003908F2003808F1003708C0
:1007AA00F00000300A168A1184200A128A1173088E
:1007BA0083120313E7007208E6007108E500700867
:1007CA00E400831603133E0883120313EB00831617
:1007DA0003133D0883120313EA00831603133C082C
:1007EA0083120313E900831603133B0883120313CE
:1007FA00E8000A168A156E210A128A118312031357
:10080A00670883160313BE00831203136608831650
:10081A000313BD0083120313650883160313BC0078
:10082A0083120313640883160313BB00B101B201D8
:10083A00C201C20A4208A50001300310A50DFF3EFD
:10084A00031D222C0310250D693E84000A168A1501
:10085A000A200A128A11A6000A168A150A200A1202
:10086A008A11A7000A168A150A200A128A11A800F4
:10087A000A168A150A200A128A11A90029083A02B8
:10088A00031D512C28083902031D512C2708380250
:10089A00031D512C260837020318542C552C562CAC
:1008AA00602C0130A5002508C2070A304206031D44
:1008BA005F2C602C1F2C03302F05A500003030055B
:1008CA00A6002508260403196B2C6C2CFA2C410867
:1008DA0084002D30831380000130A5002508C1074C
:1008EA00FA2C4208A50001300310A50DFF3E031D96
:1008FA00792C0310250D693E84000A168A150A20F0
:10090A000A128A11F0000A168A150A200A128A1196
:10091A00F1000A168A150A200A128A11F2000A162A
:10092A008A150A200A128A11F3003A08F7003908D0
:10093A00F6003808F5003708F4000A168A1510255B
:10094A000A128A11730883160313B6007208B500D7
:10095A007108B4007008B300003083120313A300B7
:10096A000030A2000030A1000A30A0008316031351
:10097A00360883120313A70083160313350883125C
:10098A000313A60083160313340883120313A50066
:10099A0083160313330883120313A4000A168A1555
:1009AA0099230A128A118312031323088316031345
:1009BA00B60083120313220883160313B5008312A9
:1009CA000313210883160313B400831203132008A8
:1009DA0083160313B300410884003308303E83139F
:1009EA0080000130A5002508C1070130C202420A71
:1009FA00031D002D012D762C132D83160313410898
:100A0A0084003030831380000130A5002508C10717
:100A1A00FF30B1070318B20AFF30B2073208803A32
:100A2A00FF0080307F02031D1C2D013031020318A4
:100A3A001F2D202D022D831603134008803AFF0034
:100A4A0080307F02031D2B2D09303F02031C2E2DFF
:100A5A002F2D342D083083160313C200382D831628
:100A6A0003133F08C2004208A500A6012508BF02D9
:100A7A002608031CC003C00242080319452D462D4F
:100A8A004F2D410884002E30831380000130A500C9
:100A9A002508C10742080A128A15A1240A128A11D6
:100AAA00831203133F0883160313AD008312031343
:100ABA003E0883160313AC00831203133D08831602
:100ACA000313AB00831203133C0883160313AA0013
:100ADA002D0883120313A900831603132C0883120B
:100AEA000313A800831603132B0883120313A7000A
:100AFA00831603132A0883120313A600831603130B
:100B0A003E0883120313A500831603133D088312BC
:100B1A000313A400831603133C0883120313A300D0
:100B2A00831603133B0883120313A2000A128A15C1
:100B3A005C210A128A11831203132508D2002408A1
:100B4A00D1002308D0002208CF000A168A110C20EF
:100B5A000A128A1183120313520883160313BA0066
:100B6A0083120313510883160313B9008312031364
:100B7A00500883160313B800831203134F08831611
:100B8A000313B700A72E4208A50001300310A50DD4
:100B9A00FF3E031DCB2D0310250D693E84000A1666
:100BAA008A150A200A128A11F0000A168A150A20E2
:100BBA000A128A11F1000A168A150A200A128A11E3
:100BCA00F2000A168A150A200A128A11F3003A0854
:100BDA00F7003908F6003808F5003708F4000A1655
:100BEA008A1510250A128A11730883160313B60090
:100BFA007208B5007108B4007008B300003083129F
:100C0A000313A3000030A2000030A1000A30A000A4
:100C1A0083160313360883120313A70083160313DC
:100C2A00350883120313A6008316031334088312AC
:100C3A000313A50083160313330883120313A400B6
:100C4A000A168A1599230A128A1183120313230892
:100C5A0083160313B60083120313220883160313A1
:100C6A00B50083120313210883160313B4008312F9
:100C7A000313200883160313B300410884003308C2
:100C8A00303E831380000130A5002508C1074208C1
:100C9A00A50001300310A50DFF3E031D4F2E0310C2
:100CAA00250D693E84000A168A150A200A128A113D
:100CBA0083120313A0000A168A150A200A128A113F
:100CCA00A1000A168A150A200A128A11A2000A1617
:100CDA008A150A200A128A11A300831603133A08F6
:100CEA0083120313A700831603133908831203130D
:100CFA00A60083160313380883120313A50083166C
:100D0A000313370883120313A4000A168A159923BA
:100D1A000A128A1183120313230883160313BA00D3
:100D2A0083120313220883160313B90083120313D1
:100D3A00210883160313B8008312031320088316AD
:100D4A000313B7000130C202420A031DAD2EAE2EB4
:100D5A00C82DBE2E41088400303083138000013034
:100D6A00A5002508C107FF30BF070318C00AFF30D6
:100D7A00C0073F084004031DC32EC42EAF2EE72F21
:100D8A002E08840083130008A500840A0008A60020
:100D9A002508B7002608B8000030B81BFF30B90094
:100DAA00BA000230A5002508AE07BA1FDD2EDE2ED6
:100DBA00ED2E0330AF040030B004B709B809B90901
:100DCA00BA09B70A0319B80A0319B90A0319BA0AF8
:100DDA003F084004031DF22EF32E012F3A0839046E
:100DEA0038043704031DFA2EFB2E012F0130BF07EA
:100DFA000318C00A0030C007C201C20A4208A5008F
:100E0A0001300310A50DFF3E031D062F0310250D0B
:100E1A00693E84000A168A150A200A128A11A60057
:100E2A000A168A150A200A128A11A7000A168A15B2
:100E3A000A200A128A11A8000A168A150A200A121A
:100E4A008A11A90029083A02031D352F28083902F8
:100E5A00031D352F27083802031D352F26083702B0
:100E6A000318382F392F3A2F442F0130A5002508AF
:100E7A00C2070A304206031D432F442F032F40089E
:100E8A00803A803C031D4B2F3F08420203184E2F25
:100E9A004F2F502F682F831603134008803AA5005E
:100EAA0080302502031D5B2F42083F0203185E2F84
:100EBA005F2F682F831603134208A500A601250891
:100ECA00BF002608C0000330831603132F05A500B0
:100EDA0000303005A600250826040319752F762F41
:100EEA00D92F410884002D30831380000130A500DA
:100EFA002508C107D92F003083120313A30000303D
:100F0A00A2000030A1000A30A000831603133F0894
:100F1A00A50001300310A50DFF3E031D8F2F0310FE
:100F2A00250D693E84000A168A150A200A128A11BA
:100F3A00F0000A168A150A200A128A11F1000A1606
:100F4A008A150A200A128A11F2000A168A150A203C
:100F5A000A128A11F3003A08F7003908F60038082D
:100F6A00F5003708F4000A168A1510250A128A11A4
:100F7A00730883120313A7007208A6007108A5005C
:100F8A007008A4000A168A1599230A128A11831274
:100F9A0003132008303E83160313C200410884005D
:100FAA004208831380007B2FFF30BF070318C00A53
:100FBA00FF30C0073F0A031DE62F400A031DE62F34
:100FCA00E72F802F0130A007FF30200784000A1680
:100FDA008A150A200A128A11C2004208031DF62F36
:100FEA00F72F7D28410884008313800108008301BC
:060FFA000A168A119F2D6A
:1010040000307005F80000307105F9008030720579
:10101400FA007F307305FB007B087A0479047804B6
:10102400031D152816281E280030F3000030F20096
:101034000030F1000030F00000307405F80000309A
:101044007505F90080307605FA007F307705FB00DE
:101054007B087A0479047804031D312832283A285D
:101064000030F7000030F6000030F5000030F400E6
:10107400F31F3D283E2862280030F8000030F900B4
:101084000030FA008030FB007008F8027108031C7D
:10109400710F4D284E28F9027208031C720F532851
:1010A4005428FA027308031C730F59285A28FB02A8
:1010B4007B08F3007A08F2007908F1007808F00060
:1010C400F71F652866288A280030F8000030F900E8
:1010D4000030FA008030FB007408F8027508031C25
:1010E400750F75287628F9027608031C760F7B287D
:1010F4007C28FA027708031C770F81288228FB02D8
:101104007B08F7007A08F6007908F5007808F400FF
:101114008030F3068030F70677087302031D9C289D
:1011240076087202031D9C2875087102031D9C2811
:101134007408700203189F28A028A2280310A3286B
:10114400031408000310720D730D83120313A5001A
:101154002508031DAE28AF28B8280030F30000305E
:10116400F2000030F1000030F0005B290310760D2E
:10117400770DA4002408031DC028C128C228AF2865
:10118400F217FF30F005FF30F105FF30F2050030B3
:10119400F305F617FF30F405FF30F505FF30F605CB
:1011A4000030F7050030A3000030A2000030A10099
:1011B4000030A0007F30A502A0302407F800780892
:1011C400A5022030A4000130F8000310A00DA10DE9
:1011D400A20DA30DF80BE72877087302031DFC2862
:1011E40076087202031DFC2875087102031DFC2891
:1011F40074087002031CFF2800290F297408F002E8
:101204007508031C750FF1027608031C760FF202B1
:101214007708031C770FF30220140130F800031041
:10122400F00DF10DF20DF30DF80B11290130A402AC
:10123400031D1D291E29E528A51F212922293C2932
:101244002508803A9F3E0318282929292A29AF28EE
:1012540001300310A30CA20CA10CA00CFF3E031D33
:101264002B290130F8007808A507031D3A293B29EA
:101274002A29532920302502031C412942294E29B9
:10128400AF280130F8000310A00DA10DA20DA30D8D
:10129400F80B45290130A5022508031D52295329BD
:1012A40043292308F3002208F2002108F100200852
:1012B400F00008008312031325088039AF002508C5
:1012C400AA002A07B500A41F682969296A293514C8
:1012D400350803196E296F297E29350A031D7329E0
:1012E40074297C290030A5000030A4000030A3003C
:1012F4000030A200A41786290030A5000030A40005
:101304000030A3000030A20029088039AA002A086E
:10131400AF062908AA002A07B400A81F9229932916
:10132400942934143408031998299929A829340ACA
:10133400031D9D299E29A6290030A9000030A8007C
:101344000030A7000030A600A817B0290030A9007B
:101354000030A8000030A7000030A60034080319AC
:10136400B429B529BA293508031DB929BA29C329CD
:101374000030A5000030A4000030A3000030A2001B
:10138400A02C2208F00028080A168A15B7210A1290
:101394008A15710883120313BB007008BA003A0857
:1013A400AA00AB01AC01AD012D08B3002C08B200BA
:1013B4002B08B1002A08B0003B08AA00AB01AC011D
:1013C400AD012D08B9002C08B8002B08B7002A0875
:1013D400B6002308F00027080A168A15B7210A1256
:1013E4008A15710883120313BB007008BA003A0807
:1013F400AA00AB01AC01AD012A08B0072B08031108
:101404000318013E0319072AB1072C080311031816
:10141400013E03190E2AB2072D0803110318013ED9
:101424000319152AB3073B08AA00AB01AC01AD01AF
:101434002A08B6072B0803110318013E0319232AAF
:10144400B7072C0803110318013E03192A2AB80709
:101454002D0803110318013E0319312AB907240882
:10146400F00026080A168A15B7210A128A1571088F
:1014740083120313BB007008BA003A08AA00AB0138
:10148400AC01AD012A08B0072B0803110318013E73
:1014940003194D2AB1072C0803110318013E03193F
:1014A400542AB2072D0803110318013E03195B2ABD
:1014B400B3073B08AA00AB01AC01AD012A08B6078B
:1014C4002B0803110318013E0319692AB7072C08D6
:1014D40003110318013E0319702AB8072D080311DC
:1014E4000318013E0319772AB9070830AA0003102C
:1014F400B00DB10DB20DB30DAA0B792A2308F0007B
:1015040026080A168A15B7210A128A157108831249
:101514000313BB007008BA003A08AA003B08AB00EA
:10152400AC01AD012A08B0072B0803110318013ED2
:1015340003199D2AB1072C0803110318013E03194E
:10154400A42AB2072D0803110318013E0319AB2A7C
:10155400B3072208F00027080A168A15B7210A12D1
:101564008A15710883120313BB007008BA003A0885
:10157400AA003B08AB00AC01AD012A08B0072B0858
:1015840003110318013E0319C82AB1072C080311DB
:101594000318013E0319CF2AB2072D0803110318BB
:1015A400013E0319D62AB3070830AA000310B00D70
:1015B400B10DB20DB30DAA0BD82A2208F0002608EB
:1015C4000A168A15B7210A128A15710883120313A1
:1015D400BB007008BA003A08AA003B08AB00AC0193
:1015E400AD012A08B0072B0803110318013E0319A3
:1015F400FC2AB1072C0803110318013E0319032B1D
:10160400B2072D0803110318013E03190A2BB3076F
:101614002308F00028080A168A15B7210A128A1529
:10162400710883120313BB007008BA003A08AA00B9
:101634003B08AB00AC01AD012A08B6072B08031127
:101644000318013E0319272BB7072C0803110318AD
:10165400013E03192E2BB8072D0803110318013E70
:101664000319352BB9072408F00027080A168A1530
:10167400B7210A128A15710883120313BB0070087C
:10168400BA003A08AA003B08AB00AC01AD012A0835
:10169400B6072B0803110318013E0319522BB70791
:1016A4002C0803110318013E0319592BB8072D0800
:1016B40003110318013E0319602BB9072408F00035
:1016C40028080A168A15B7210A128A157108831286
:1016D4000313BB007008BA003A08AA003B08AB0029
:1016E400AC01AD0108300310AA0DAB0DAC0DAD0D6E
:1016F400FF3E031D752B2A08B6072B080311031898
:10170400013E0319862BB7072C0803110318013E69
:1017140003198D2BB8072D0803110318013E031973
:10172400942BB9073008AA003108AB003208AC008A
:101734003308AD0018300310AD0CAC0CAB0CAA0C84
:10174400FF3E031D9D2B2A08B6072B08031103181F
:10175400013E0319AE2BB7072C0803110318013EF1
:101764000319B52BB8072D0803110318013E0319FB
:10177400BC2BB9070830AA000310B00DB10DB20D8F
:10178400B30DAA0BBE2B35083407AA00AB01AB0D71
:101794002A08823EBA002B080318013EFF3EBB0014
:1017A400F02B0130AA000310B60DB70DB80DB90D1A
:1017B400AA0BD52BB31FDF2BE02BE12B3614013002
:1017C400AA000310B00DB10DB20DB30DAA0BE32B9B
:1017D400FF30BA070318BB0AFF30BB07B81FF32B4F
:1017E400F42BD32BB401B31FF82BF92B152CFF309A
:1017F4003005AA00FF303105AB00FF303205AC00E4
:101804007F303305AD002D082C042B042A04031962
:101814000C2C0D2C102CB401B40A152C361C132CD2
:10182400142C152C0D2C34080319192C1A2C4B2CA0
:101834000130B607003003180130B7070030031831
:101844000130B807003003180130B907391C2B2CBC
:101854002C2C4B2C3608AA003708AB003808AC00F7
:101864003908AD000130AE002D0DAD0CAC0CAB0C45
:10187400AA0CAE0B362C2D08B9002C08B8002B0886
:10188400B7002A08B6000130BA070318BB0A0030B3
:10189400BB073B08803AFF0080307F02031D542CB5
:1018A400FF303A02031C572C582C632C7F308312D0
:1018B4000313B9008030B8000030B7000030B60020
:1018C400942C831203133B08803AFF0080307F027C
:1018D400031D6E2C01303A020318712C722C7E2CDD
:1018E400003083120313B9000030B8000030B70091
:1018F4000030B600AF01942C831203133A08B500EC
:10190400FF30B605FF30B7057F30B8050030B905A4
:10191400351C8D2C8E2C8F2CB8173508AA0003107B
:101924002A0CB9002F08AA002A08B9043908A5000E
:101934003808A4003708A3003608A2000800831260
:101944000313CE00CE1FA72CA82C552ECE09CE0AE9
:101954004E08803A123E031CB02CB12C992D0A304B
:10196400F0000030F1004E08FB00FC01FB1BFC03FF
:101974006430F9000030FA000A168A15EF230A12BF
:101984008A157A08F3007908F2000A128A111020E5
:101994000A128A15700883120313C0000130031061
:1019A400C00DFF3E031DD12C0310400D593E840091
:1019B4000A168A150A200A128A15C1000A168A15FF
:1019C4000A200A128A15C2000A168A150A200A1267
:1019D4008A15C3000A168A150A200A128A15C40039
:1019E4004408A5004308A4004208A3004108A2003B
:1019F4006430F0000030F1004E08F200F301F21BF5
:101A0400F3030A128A1110200A128A15700883122D
:101A14000313C50001300310C50DFF3E031D0D2D3A
:101A24000310450D7D3E84000A168A150A200A1209
:101A34008A15C6000A168A150A200A128A15C700D2
:101A44000A168A150A200A128A15C8000A168A1567
:101A54000A200A128A15C9004908A9004808A800E2
:101A64004708A7004608A6000A128A155C210A1234
:101A74008A15831203132508CD002408CC002308FB
:101A8400CB002208CA000A30F9000030FA004E08E0
:101A9400FB00FC01FB1BFC030A168A15EF230A1248
:101AA4008A15790883120313C00001300310C00D96
:101AB400FF3E031D582D0310400D353E84000A16C9
:101AC4008A150A200A128A15C1000A168A150A20E4
:101AD4000A128A15C2000A168A150A200A128A15E1
:101AE400C3000A168A150A200A128A15C40044087B
:101AF400A5004308A4004208A3004108A2004D0821
:101B0400A9004C08A8004B08A7004A08A6000A121E
:101B14008A155C210A128A15831203132508BF0053
:101B24002408BE002308BD002208BC00FF2F4E0875
:101B3400803A753E031C9F2DA02D282E0A30F900F3
:101B44000030FA004E08FB00FC01FB1BFC030A16E4
:101B54008A15EF230A128A15790883120313C00029
:101B640001300310C00DFF3E031DB32D0310400DC3
:101B7400353E84000A168A150A200A128A15C10005
:101B84000A168A150A200A128A15C2000A168A152C
:101B94000A200A128A15C3000A168A150A200A1294
:101BA4008A15C4004408A5004308A4004208A30001
:101BB4004108A2000A30F0000030F1004E08F200A3
:101BC400F301F21BF3030A128A1110200A128A1578
:101BD400700883120313C50001300310C50DFF3EC6
:101BE400031DEF2D0310450D593E84000A168A1576
:101BF4000A200A128A15C6000A168A150A200A1231
:101C04008A15C7000A168A150A200A128A15C800FE
:101C14000A168A150A200A128A15C9004908A90059
:101C24004808A8004708A7004608A6000A128A1513
:101C34005C210A128A15831203132508BF002408A5
:101C4400BE002308BD002208BC00FF2F4E08C000C0
:101C540001300310C00DFF3E031D2B2E0310400D59
:101C6400353E84000A168A150A200A128A15C10014
:101C74000A168A150A200A128A15C2000A168A153B
:101C84000A200A128A15C3000A168A150A200A12A3
:101C94008A15C4004408BF004308BE004208BD00C2
:101CA4004108BC00FF2F4E08803A123E031C5B2EF5
:101CB4005C2E442F0A30F0000030F1004E08FB0087
:101CC400FC01FB1BFC036430F9000030FA000A1627
:101CD4008A15EF230A128A157A08F3007908F200AC
:101CE4000A128A1110200A128A157008831203132B
:101CF400C00001300310C00DFF3E031D7C2E0310F5
:101D0400400D253E84000A168A150A200A128A15F7
:101D1400C1000A168A150A200A128A15C2000A1678
:101D24008A150A200A128A15C3000A168A150A207F
:101D34000A128A15C4004408A5004308A4004208F6
:101D4400A3004108A2006430F0000030F1004E0806
:101D5400F200F301F21BF3030A128A1110200A1293
:101D64008A15700883120313C50001300310C50DD2
:101D7400FF3E031DB82E0310450D493E84000A168C
:101D84008A150A200A128A15C6000A168A150A201C
:101D94000A128A15C7000A168A150A200A128A1519
:101DA400C8000A168A150A200A128A15C9004908A9
:101DB400A9004808A8004708A7004608A6000A1278
:101DC4008A155C210A128A15831203132508CD0093
:101DD4002408CC002308CB002208CA000A30F900EA
:101DE4000030FA004E08FB00FC01FB1BFC030A1642
:101DF4008A15EF230A128A15790883120313C00087
:101E040001300310C00DFF3E031D032F0310400DCE
:101E1400013E84000A168A150A200A128A15C10096
:101E24000A168A150A200A128A15C2000A168A1589
:101E34000A200A128A15C3000A168A150A200A12F1
:101E44008A15C4004408A5004308A4004208A3005E
:101E54004108A2004D08A9004C08A8004B08A7009F
:101E64004A08A6000A128A155C210A128A158312EE
:101E740003132508BF002408BE002308BD00220860
:101E8400BC00FF2F4E08803A753E031C4A2F4B2F8F
:101E9400D32F0A30F9000030FA004E08FB00FC0191
:101EA400FB1BFC030A168A15EF230A128A1579080C
:101EB40083120313C00001300310C00DFF3E031D45
:101EC4005E2F0310400D013E84000A168A150A2075
:101ED4000A128A15C1000A168A150A200A128A15DE
:101EE400C2000A168A150A200A128A15C3000A16A5
:101EF4008A150A200A128A15C4004408A50043085A
:101F0400A4004208A3004108A2000A30F0000030F7
:101F1400F1004E08F200F301F21BF3030A128A11D6
:101F240010200A128A15700883120313C5000130A9
:101F34000310C50DFF3E031D9A2F0310450D253ECA
:101F440084000A168A150A200A128A15C6000A167F
:101F54008A150A200A128A15C7000A168A150A2049
:101F64000A128A15C8000A168A150A200A128A1546
:101F7400C9004908A9004808A8004708A70046085E
:101F8400A6000A128A155C210A128A158312031309
:101F94002508BF002408BE002308BD002208BC0099
:101FA400FF2F4E08C00001300310C00DFF3E031D7B
:101FB400D62F0310400D013E84000A168A150A200C
:101FC4000A128A15C1000A168A150A200A128A15ED
:101FD400C2000A168A150A200A128A15C3000A16B4
:101FE4008A150A200A128A15C4004408BF0043084F
:0C1FF400BE004208BD004108BC0008000F
:1020040070088316031399009816831203130C1295
:1020140018160800031083120313510D520DD80033
:102024005808031D1628172820280030D200003035
:10203400D1000030D0000030CF0083284F08D300F7
:102044005008D4005108D5005208D6001F300310A0
:10205400D60CD50CD40CD30CFF3E031D29285308F1
:10206400D700D117FF30CF05FF30D005FF30D105A1
:102074000030D2059630D802D81F412842285C2867
:102084005808803A973E0318482849284A281728B0
:1020940001300310D20CD10CD00CCF0CFF3E031D29
:1020A4004B280130D3005308D807031D5A285B2856
:1020B4004A28732820305802031C612862286E289D
:1020C40017280130D3000310CF0DD00DD10DD20D40
:1020D400D30B65280130D8025808031D72287328D1
:1020E400632857080319772878288328CF09D0094B
:1020F400D109D209CF0A0319D00A0319D10A031945
:10210400D20A0800F8007808031989288A289E282A
:10211400F31F8D288E289E287009FA007109FB0090
:102124007209FC007309FD00FA0A0319FB0A03197A
:10213400FC0A0319FD0AA6287308FD007208FC00B6
:102144007108FB007008FA007308720471047004CB
:10215400031DAD28AE28B7280030F3000030F2008C
:102164000030F1000030F0003B299630F900C72818
:102174000130F4007408F90701300310FD0CFC0C65
:10218400FB0CFA0CFF3E031DBF28FE307D05031D2A
:10219400CC28CD28BA28E9280130F4007408F907BE
:1021A4000130FA07003003180130FB070030031830
:1021B4000130FC07003003180130FD070130031023
:1021C400FD0CFC0CFB0CFA0CFF3E031DE128FF3058
:1021D4007D05031DEE28EF28CE28FB280130F902E7
:1021E4000130F4000310FA0DFB0DFC0DFD0DF40B92
:1021F400F428FC1BFE28FF28052902307902031865
:1022040004290529F0287918082909291129FF30FA
:10221400FA05FF30FB057F30FC05FF30FD05031098
:10222400F90C7908F400F501F601F70118300310F0
:10223400F40DF50DF60DF70DFF3E031D1929740875
:10224400FA047508FB047608FC047708FD04780892
:1022540003192D292E293329F31F31293229332932
:10226400FD177D08F3007C08F2007B08F1007A0872
:10227400F000080083120313CF006E304F02031CDA
:1022840044294529522A3F30A5000030A4000030DB
:10229400A3000030A2006430F6000030F7004F08BD
:1022A400C000C1014008F8004108F9000A168A1567
:1022B40007230A168A11760883120313C200013019
:1022C4000310C20DFF3E031D62290310420D7D3E23
:1022D40084000A168A150A200A168A11C3000A16EF
:1022E4008A150A200A168A11C4000A168A150A20B9
:1022F4000A168A11C5000A168A150A200A168A11B6
:10230400C6004608A9004508A8004408A7004308D9
:10231400A6000A128A155C210A168A118312031375
:102324002508CE002408CD002308CC002208CB00C9
:102334000A30F6000030F7004F08C000C101400821
:10234400F2004108F3006430F0000030F1000A1696
:102354008A150B220A168A117108F9007008F80010
:102364000A168A1507230A168A117608831203139C
:10237400C20001300310C20DFF3E031DBC2903102F
:10238400420D593E84000A168A150A200A168A113B
:10239400C3000A168A150A200A168A11C4000A16EE
:1023A4008A150A200A168A11C5000A168A150A20F7
:1023B4000A168A11C6004608A5004508A400440868
:1023C400A3004308A2004E08A9004D08A8004C0829
:1023D400A7004B08A6000A128A155C210A168A1166
:1023E400831203132508CA002408C9002308C8005F
:1023F4002208C7000A30F0000030F1004F08C00086
:10240400C1014008F2004108F3000A168A150B22A4
:102414000A168A11700883120313C20001300310D4
:10242400C20DFF3E031D112A0310420D353E8400E8
:102434000A168A150A200A168A11C3000A168A1572
:102444000A200A168A11C4000A168A150A200A16D6
:102454008A11C5000A168A150A200A168A11C600AE
:102464004608A5004508A4004408A3004308A200A8
:102474004A08A9004908A8004808A7004708A60078
:102484000A128A155C210A168A118312031325087D
:10249400BF002408BE002308BD002208BC00462B50
:1024A4000B304F02031C572A582A032B3F30A50038
:1024B4000030A4000030A3000030A2000A30F6006F
:1024C4000030F7004F08C000C1014008F80041087F
:1024D400F9000A168A1507230A168A117608831248
:1024E4000313C20001300310C20DFF3E031D752A01
:1024F4000310420D593E84000A168A150A200A1652
:102504008A11C3000A168A150A200A168A11C40001
:102514000A168A150A200A168A11C5000A168A158F
:102524000A200A168A11C6004608A9004508A80010
:102534004408A7004308A6000A128A155C210A165B
:102544008A11831203132508CE002408CD00230822
:10255400CC002208CB000A30F0000030F1004F0814
:10256400C000C1014008F2004108F3000A168A15B0
:102574000B220A168A11700883120313C200013059
:102584000310C20DFF3E031DC22A0310420D353E47
:1025940084000A168A150A200A168A11C3000A162C
:1025A4008A150A200A168A11C4000A168A150A20F6
:1025B4000A168A11C5000A168A150A200A168A11F3
:1025C400C6004608A5004508A4004408A300430823
:1025D400A2004E08A9004D08A8004C08A7004B080B
:1025E400A6000A128A155C210A168A1183120313A3
:1025F4002508BF002408BE002308BD002208BC0033
:10260400462B3F30A5000030A4000030A30000306A
:10261400A2004F08C00001300310C00DFF3E031D8F
:102624000E2B0310400D353E84000A168A150A202D
:102634000A168A11C1000A168A150A200A168A1176
:10264400C2000A168A150A200A168A11C3000A163D
:102654008A150A200A168A11C4004408A9004308EE
:10266400A8004208A7004108A6000A128A155C21A6
:102674000A168A11831203132508BF002408BE001A
:102684002308BD002208BC0008008312031353086A
:102694008039E0005308D8005807E200D21F532BBA
:1026A400542B552B621462080319592B5A2B6A2B8D
:1026B400620A031D5E2B5F2B672B0030D3000030B2
:1026C400D2000030D1000030D000D217D301722BD9
:1026D4000030D3000030D2000030D1000030D000F0
:1026E40057088039E1006108600603197A2B7B2BB7
:1026F4007C2B60175708D8005807E100D61F832B9E
:10270400842B852B611461080319892B8A2B9A2B3E
:10271400610A031D8E2B8F2B972B0030D7000030BE
:10272400D6000030D5000030D400D617D701A22B34
:102734000030D7000030D6000030D5000030D4007F
:10274400620861020318A72BA82BCE2B601FAB2BAA
:10275400AC2BB02B8030D8005808E0066208E300A8
:102764006108E2006308E1005008E3005408D00067
:102774006308D4005108E3005508D1006308D5006C
:102784005208E3005608D2006308D6005308E30059
:102794005708D3006308D700E3016108D800D901C2
:1027A4005908DB0062085802DA00031CDB035B08EB
:1027B400803AFF0080307F02031DE22B1A305A0258
:1027C400031CE52BE62B1D2C831203135308520420
:1027D40051045004031DEF2BF12B0130F22B003078
:1027E400E3000030D3000030D2000030D1000030CC
:1027F400D0006108E200252C631C012C022C092C5A
:102804006308D8000310580C0138E3000B2C0310A4
:10281400E30C501C0E2C0F2C102CE3170130D800A5
:10282400530DD30CD20CD10CD00CD80B122C01307C
:10283400D8005808E2078312031361086202031CDC
:10284400242C252CFE2B601B282C292C722C62088E
:10285400031D2D2C2E2C372C0030D3000030D20039
:102864000030D1000030D0009E2D5408D007550808
:1028740003110318013E0319402CD1075608031114
:102884000318013E0319472CD207570803110318F4
:10289400013E03194E2CD307531C512C522C262DC8
:1028A400631C552C562C5D2C6308D8000310580C5F
:1028B4000138E3005F2C0310E30C501C622C632CE2
:1028C400642CE3170130D800530DD30CD20CD10C77
:1028D400D00CD80B662C0130D8005808E207262DFE
:1028E4005308803AFF005708803A7F02031D842C66
:1028F40056085202031D842C55085102031D842CD2
:10290400540850020318872C882CE02CFF30D80080
:10291400FF30D900FF30DA00FF30DB005408DC0060
:102924005508DD005608DE005708DF005008DC02B9
:102934005108031C510F9F2CA02CDD025208031CCC
:10294400520FA52CA62CDE025308031C530FAB2CEC
:10295400AC2CDF025C08D8075D0803185D0FB32CAC
:10296400B42CD9075E0803185E0FB92CBA2CDA0709
:102974005F0803185F0ADB075B08D3005A08D2001C
:102984005908D1005808D0008030D8005808E00613
:10299400E309E30A6308031DD02CD12CEE2C01308B
:1029A400D007003003180130D1070030031801307C
:1029B400D207003003180130D307EE2C5408D0029C
:1029C4005508031C550FD1025608031C560FD2029A
:1029D4005708031C570FD3025308520451045004E0
:1029E400031DF52CF62C222D6308031DFA2CFB2C59
:1029F400222D0030D3000030D2000030D10000304E
:102A0400D0009E2D0130D8000310D00DD10DD20D71
:102A1400D30DD80B062DE31F102D112D122D50149C
:102A2400631C152D162D192D0314E30D1B2D0310F6
:102A3400E30D620803191F2D202D222D0130E2021F
:102A4400D21F252D262D042DE101E31F2A2D2B2D28
:102A5400392D63087F390319302D312D342DE101CF
:102A6400E10A392D501C372D382D392D312D6108AF
:102A740003193D2D3E2D722D0130D007003003186F
:102A84000130D107003003180130D2070030031899
:102A94000130D307531C4F2D502D722D5008D800F0
:102AA4005108D9005208DA005308DB000130DC0079
:102AB4005B0DDB0CDA0CD90CD80CDC0B5A2D5B0843
:102AC400D3005A08D2005908D1005808D000620A2D
:102AD40003196D2D6E2D722D0130D8005808E207B0
:102AE400620A0319762D772D7C2D6208031D7B2D38
:102AF4007C2D8A2D0030D3000030D2000030D1006C
:102B04000030D0006208031D882D892D8A2DE00134
:102B1400621C8D2D8E2D902DD217942D7F30D800D0
:102B24005808D2056208D8000310580CD300E01FDF
:102B34009C2D9D2D9E2DD317080001308316031361
:102B4400DB000030DC000A168A150A210A168A11F5
:102B54000830F0000030F1000A168A154A240A16DB
:102B64008A1100300A168A15DE210A168A110130EC
:102B74000A168A15DE210A168A110C30F00000307C
:102B8400F1000A168A15E6200A168A110C30F000A4
:102B94000030F1000A168A1102200A168A110A1658
:102BA4008A15AC240A168A110A168A15DF200A1619
:102BB4008A11F401F40A01300A168A154E210A1604
:102BC4008A119630F3008030F4000A168A158322A5
:102BD4000A168A110730F40001300A168A154E21AC
:102BE4000A168A119A30F3008030F4000A168A1506
:102BF40083220A168A110D30F40001300A168A1550
:102C04004E210A168A119E30F3008030F4000A1611
:102C14008A1583220A168A1100300A168A15C522DB
:102C24000A168A11433083120313BF007F30BE009B
:102C34000030BD000030BC004030A500A030A4002E
:102C44000030A3000030A2001E08EC00ED01EE01EC
:102C5400EF016F08F3006E08F2006D08F1006C08D4
:102C6400F00001300A168A1184200A168A117308AA
:102C740083120313A9007208A8007108A700700842
:102C8400A6000A128A155C210A168A1183120313FC
:102C94002508C3002408C2002308C1002208C0007C
:102CA4000A168A152D260A168A11831203133F0861
:102CB40083160313C600831203133E0883160313FB
:102CC400C500831203133D0883160313C400831243
:102CD40003133C0883160313C3009130A000460875
:102CE400A4004508A3004408A2004308A100D13071
:102CF4000A128A1177200A168A11F401F40A0230A2
:102D04000A168A154E210A168A11D130F3000030B2
:102D1400F4000A168A1583220A168A110530F40073
:102D240002300A168A154E210A168A1156300A16DE
:102D34008A151E210A168A1101300A168A15C5221F
:102D44000A168A11433083120313BF007F30BE007A
:102D54000030BD000030BC004030A500A030A4000D
:102D64000030A3000030A2001E08EC00ED01EE01CB
:102D7400EF016F08F3006E08F2006D08F1006C08B3
:102D8400F00001300A168A1184200A168A11730889
:102D940083120313A9007208A8007108A700700821
:102DA400A6000A128A155C210A168A1183120313DB
:102DB4002508C3002408C2002308C1002208C0005B
:102DC4000A168A152D260A168A11831203133F0840
:102DD40083160313CA00831203133E0883160313D6
:102DE400C900831203133D0883160313C80083121A
:102DF40003133C0883160313C7009130A0004A084C
:102E0400A4004908A3004808A2004708A100D43040
:102E14000A128A1177200A168A110730F400023048
:102E24000A168A154E210A168A11D430F30000308E
:102E3400F4000A168A1583220A168A110B30F4004C
:102E440002300A168A154E210A168A1156300A16BD
:102E54008A151E210A168A110A168A15EF200A16E7
:102E64008A1183160313D7002B305706031D3B2FFB
:102E74003C2F432F0130DB070318DC0A0030DC074A
:102E84004F2F2D305706031D482F492F4F2FFF304A
:102E9400DB070318DC0AFF30DC075B08831203132B
:102EA400860083160313DC1F582F592F5B2FDB0179
:102EB400DC016430F0000030F1005C08F3005B08D2
:102EC400F2000A128A1110200A168A117108831658
:102ED4000313D0007008CF000A30F9000030FA0064
:102EE4000A30F0000030F1005C08F3005B08F200E7
:102EF4000A128A1110200A168A117108FC0070083F
:102F0400FB000A168A15EF230A168A117A0883161B
:102F14000313CE007908CD000A30F9000030FA001E
:102F24005C08FC005B08FB000A168A15EF230A16EE
:102F34008A117A0883160313CC007908CB00A230D7
:102F4400A0005008A2004F08A100D8300A128A112C
:102F540077200A168A110D30F40002300A168A15F9
:102F64004E210A168A11D830F3000030F4000A16F4
:102F74008A1583220A168A11A23083160313A0002D
:102F84004E08A2004D08A100D8300A128A117720F9
:102F94000A168A110E30F40002300A168A154E21E0
:102FA4000A168A11D830F3000030F4000A168A1584
:102FB40083220A168A11A23083160313A0004C0838
:102FC400A2004B08A100D8300A128A1177200A16F1
:102FD4008A110F30F40002300A168A154E210A169F
:102FE4008A11D830F3000030F4000A168A158322BF
:102FF4000A168A110E2E0A128A110028FF1B0A28AB
:1030040083137F1883170008840A0319FF0A080032
:1030140018308A000408840A82070034003400341B
:1030240080343F34003400342034413400340034DC
:10303400C8344234003400347A34443400344034E4
:103044001C34463400345034C334473400342434FC
:10305400743449348034963418344B342034BC34BA
:10306400BE344C3428346B346E344E34F934023468
:1030740015345034EC347834AD346034CA34F2341A
:10308400493471340034003480343F34CD34CC348A
:10309400CC343D340A34D73423343C346F341234C2
:1030A40083343A341734B734D1343834AC34C53477
:1030B40027343734BD343734863435349534BF340B
:1030C400D63433347734CC342B3432345F347034E4
:1030D40089343034FF34E634DB342E340834E534B8
:1030E4003C341E3460344234A2340D340134003490
:1030F400003400340A3400340034003464340034BE
:1031040000340034E83403340034003410342734F9
:1031140000340034A0348634013400344034423462
:103124000F34003480349634983400340034E1345D
:10313400F53405340034CA349A343B3425342E34FF
:10314400323466340034533431343A340034533432
:1031540032343A340034533433343A34003425347A
:063164002E346434003437
:1031BE0001300A168A1534210A168A15080070087D
:1031CE00831603139900181283120313981708001D
:1031DE00831203138C1EF428F528F7288C121A0874
:1031EE000800F100F0013A3071020318FF2800299F
:1031FE00082930307102031C052906290829F0011F
:10320E00F00A700C080083160317880189018316D3
:10321E000313860188018901831203138601880135
:10322E0089018B170B17831603138C160800F200F7
:10323E0083120313091472080A168A1545220A16F8
:10324E008A158312031389141A30F100F10B2D29FC
:10325E0000008312031389100800F3008312031376
:10326E00091073080A168A1545220A168A15831242
:10327E00031389140B30F2006230F100F10B452973
:10328E00F20B452900008312031389100800F50084
:10329E007503031D532954295E2974087F3EF600D9
:1032AE0076080A168A1534210A168A156D290230F7
:1032BE007506031D632964296D297408BF3EF60047
:1032CE0076080A168A1534210A168A1508008030E7
:1032DE0083120313E7066B08D3006A08D20069084D
:1032EE00D1006808D0006708D7006608D6006508C8
:1032FE00D5006408D4000A168A1147230A168A15C7
:10330E00831203135308E7005208E6005108E50044
:10331E005008E4000800F401F501701C9729982963
:10332E009E297208F4070318F50A7308F507013091
:10333E000310F20DF30DFF3E031D9F290130031004
:10334E00F10CF00CFF3E031DA62970087104031D3D
:10335E00B129B22994297508F1007408F00008000B
:10336E00F800F401F5017008F200F3017208F6009E
:10337E007308F700781CC429C529CB297608F407F1
:10338E000318F50A7708F50701300310F60DF70D4F
:10339E00FF3E031DCC290310F80C7808031DD82915
:1033AE00D929C1297508F1007408F0000800F10050
:1033BE007108031DE329E429EA2983160313051472
:1033CE008316031708147103031DEE29EF29F5293F
:1033DE00831603138514831603178814831203139D
:1033EE001F179F13831603131F129F129F1383120F
:1033FE0003131F119F111F129F121F144230F00052
:10340E00F00B072A00000800700871040319102A37
:10341E00112A402AF501F50A1F2A01300310F00D7A
:10342E00F10DFF3E031D152A0130F4007408F50757
:10343E00F11F222A232A142A71087302031D292A36
:10344E0070087202031C2C2A2D2A332A7008F202ED
:10345E007108031CF303F30201300310F10CF00C9E
:10346E00FF3E031D342A0130F502031D3F2A402A78
:10347E00232A7308F1007208F0000800F000701C97
:10348E00492A4A2A4E2A831203130814512A8312F8
:10349E0003130810F01C542A552A572A8814582A48
:1034AE008810701D5B2A5C2A5E2A08155F2A081197
:1034BE00F01D622A632A652A8815662A8811701EF5
:1034CE00692A6A2A6C2A08166D2A0812F01E702ABA
:1034DE00712A732A8816742A8812701F772A782AFE
:1034EE007A2A08177B2A0813F01F7E2A7F2A812A40
:1034FE008817822A88130800F801F901A82A78088B
:10350E007307F6007408F5000318F50AF81F902AE1
:10351E00F5037508F700770883120313FF0076088A
:10352E0084000A168A1500200A168A150A168A15AC
:10353E001E210A168A150130F8070318F90A003001
:10354E00F90778087307F6007408F5000318F50AF2
:10355E00F81FB22AF5037508F700770883120313D4
:10356E00FF00760884000A168A1500200A168A15AE
:10357E00003A031DC32AC42A862A0800F2007208E4
:10358E00031DCA2ACB2AE52AC330831203139F05D3
:10359E004230F000F00BD12A0000831203139F1467
:1035AE009F18DA2ADB2AD72A0C131A30F100F830CA
:1035BE00F000F00BE02AF10BE02A00007203031D6D
:1035CE00E92AEA2A062B831203131F08C33904388B
:1035DE009F004230F000F00BF22A0000831203131A
:1035EE009F149F18FB2AFC2AF82A0C131A30F1009C
:1035FE00F830F000F00B012BF10B012B000008004E
:10360E00FB01FC017608770403190E2B0F2B462BBA
:10361E00FD01FD0A1D2B01300310F60DF70DFF3EC7
:10362E00031D132B0130FA007A08FD07F71F202B1C
:10363E00212B122B01300310FB0DFC0DFF3E031D41
:10364E00222B77087902031D2E2B76087802031C95
:10365E00312B322B392B7608F8027708031CF9032D
:10366E00F9027B1401300310F70CF60CFF3E031D1C
:10367E003A2B0130FD02031D452B462B212B7C08D6
:10368E00F7007B08F600080000307005F8000030E7
:10369E007105F90080307205FA007F307305FB006A
:1036AE007B087A0479047804031D5E2B5F2B672B4D
:1036BE000030F3000030F2000030F1000030F00076
:1036CE0000307405F80000307505F900803076057D
:1036DE00FA007F307705FB007B087A0479047804C2
:1036EE00031D7A2B7B2B832B0030F7000030F60066
:1036FE000030F5000030F40077087306031D912B9F
:10370E0076087206031D912B75087106031D912B09
:10371E00740870060319942B952B972B0310982B76
:10372E000314080083120313230822042104200427
:10373E000319A22BA32BE62BA901A90AB32B013047
:10374E00A8000310A00DA10DA20DA30DA80BA82B70
:10375E000130A8002808A907A31FB62BB72BA62B4C
:10376E0023082702031DC52B22082602031DC52B85
:10377E0021082502031DC52B20082402031CC82B7B
:10378E00C92BD72B2008A4022108031C210FA50248
:10379E002208031C220FA6022308031C230FA702D4
:1037AE0001300310A30CA20CA10CA00CFF3E031DB4
:1037BE00D82B0130A902031DE52BE62BB72B2708CA
:1037CE00A3002608A2002508A1002408A0000800D6
:1037DE0083120313A101FC1FF52BF62BFD2BFB0906
:1037EE00FC09FB0A0319FC0AA101A10AFA1F002C0D
:1037FE00012C062CF909FA09F90A0319FA0A7908B3
:10380E007A0403190B2C0C2C3B2CA001A00A1A2CA9
:10381E0001300310F90DFA0DFF3E031D102C01307F
:10382E00FD007D08A007FA1F1D2C1E2C0F2C7A08F8
:10383E007C02031D242C79087B02031C272C282CC8
:10384E002E2C7908FB027A08031CFC03FC020130C3
:10385E000310FA0CF90CFF3E031D2F2C0130A002B1
:10386E00031D3A2C3B2C1E2C210803193F2C402CF7
:10387E00452CFB09FC09FB0A0319FC0A7C08FA001B
:10388E007B08F90008007D3070067104031D502C72
:10389E00512C582C831603130F088F3910388F00B4
:1038AE000F14FA3070067104031D5E2C5F2C662C0B
:1038BE00831603130F088F3920388F000F14F4303E
:1038CE007006031D6E2C7103031D6E2C6F2C762C4F
:1038DE00831603130F088F3930388F000F147003BF
:1038EE007104031D7B2C7C2C832C831603130F0871
:1038FE008F3940388F000F14023070067104031D8B
:10390E00892C8A2C912C831603130F088F3950386B
:10391E008F000F14043070067104031D972C982C21
:10392E009F2C831603130F088F3960388F000F14E6
:10393E00083070067104031DA52CA62CAB2C70301C
:10394E00831603138F040F14080000300A168A150D
:10395E0045220A168A150230F6001E30F500B330E5
:10396E00F400F40BB82CF50BB82CF60BB82CBF2CBE
:10397E0030300A168A1534210A168A150D30F500D4
:10398E00FB30F400F40BC92CF50BC92CCE2C3030C7
:10399E000A168A1534210A168A150D30F400F40B16
:1039AE00D62C30300A168A1534210A168A150D3097
:1039BE00F400F40BE02C38300A168A1534210A165E
:1039CE008A152430F400F40BEA2C000008300A1695
:1039DE008A1534210A168A152430F400F40BF52CBE
:1039EE00000001300A168A1534210A168A15243071
:1039FE00F400F40B002D000006300A168A1534214F
:103A0E000A168A150C300A168A1534210A168A15DA
:103A1E0008000030FC000030FB000030FA000030DF
:103A2E00F900730872047104700403191F2D202D00
:103A3E006D2DFD01FD0A302D0130F8000310F00D43
:103A4E00F10DF20DF30DF80B252D0130F80078086D
:103A5E00FD07F31F332D342D232D0130F8000310F5
:103A6E00F90DFA0DFB0DFC0DF80B362D73087702D0
:103A7E00031D4B2D72087602031D4B2D7108750226
:103A8E00031D4B2D70087402031C4E2D4F2D5E2D01
:103A9E007008F4027108031C710FF5027208031C02
:103AAE00720FF6027308031C730FF70279140130BC
:103ABE000310F30CF20CF10CF00CFF3E031D5F2D06
:103ACE000130FD02031D6C2D6D2D342D7C08F3008D
:103ADE007B08F2007A08F1007908F00008007008FF
:103AEE00F8007108F9007208FA000310790D7A0DCA
:103AFE0083120313A5002508031D862D872D902DF7
:103B0E000030F3000030F2000030F1000030F00021
:103B1E002C2E7408F8007508F9007608FA000310C8
:103B2E00790D7A0DA4002408031D9E2D9F2DA02D26
:103B3E00872DF117FF30F005FF30F1050030F2054B
:103B4E00F517FF30F405FF30F5050030F6050030AF
:103B5E00A3000030A2000030A1000030A0007F3092
:103B6E00A50298302407F8007808A5021830A400A2
:103B7E000130F8000310A00DA10DA20DA30DF80B3E
:103B8E00C12D76087202031DD22D75087102031D18
:103B9E00D22D74087002031CD52DD62DE12D74087C
:103BAE00F0027508031C750FF1027608031C760AE5
:103BBE00F202201401300310F00DF10DF20DFF3E54
:103BCE00031DE22D0130A402031DEE2DEF2DBF2D9E
:103BDE00A51FF22DF32D0D2E2508803A973E0318C2
:103BEE00F92DFA2DFB2D872D01300310A30CA20CFD
:103BFE00A10CA00CFF3E031DFC2D0130F80078082F
:103C0E00A507031D0B2E0C2EFB2D242E183025027E
:103C1E00031C122E132E1F2E872D0130F8000310B9
:103C2E00A00DA10DA20DA30DF80B162E0130A502AD
:103C3E002508031D232E242E142E2308F3002208FC
:103C4E00F2002108F1002008F0000800831203138F
:103C5E0043088039CD004308C4004407D400C21F76
:103C6E00392E3A2E3B2E5414540803193F2E402E53
:103C7E00502E540A031D442E452E4D2E0030C300E7
:103C8E000030C2000030C1000030C000C217C301B6
:103C9E00582E0030C3000030C2000030C10000308A
:103CAE00C0003F088039C4004408CD063F08C40058
:103CBE004407D500BE1F642E652E662E551455087A
:103CCE0003196A2E6B2E7B2E550A031D6F2E702E36
:103CDE00782E0030BF000030BE000030BD00003036
:103CEE00BC00BE17BF01832E0030BF000030BE00E7
:103CFE000030BD000030BC003F083E043D043C04D3
:103D0E00031D8A2E8B2EA42E0030C3000030C2005D
:103D1E000030C1000030C0008030C2047F30C304C8
:103D2E004D08C4004408C3044308BF004208BE0047
:103D3E004108BD004008BC00FF2F5408031DA82EEB
:103D4E00A92EB22E0030BF000030BE000030BD00E4
:103D5E000030BC00FF2F5408C400C5014508C70041
:103D6E0055084402C600031CC70346087F3ECE001A
:103D7E0047080318013E003ECF004308CC0042081E
:103D8E00CB004108CA004008C9000030C300003013
:103D9E00C2000030C1000030C0000030D30000303F
:103DAE00D2000030D1000030D000D501282F5508A8
:103DBE000319E22EE32E032F0130C4000310C90DA8
:103DCE00CA0DCB0DCC0DC40BE52E0130C400031073
:103DDE00C00DC10DC20DC30DC40BEE2ED31FF82E98
:103DEE00F92EFA2E40140130C4000310D00DD10D5F
:103DFE00D20DD30DC40BFC2E3F084C02031D112F08
:103E0E003E084B02031D112F3D084A02031D112FC0
:103E1E003C084902031C142F152F242F53173C085E
:103E2E00C9023D08031C3D0FCA023E08031C3E0F8B
:103E3E00CB023F08031C3F0FCC020130C4004408E4
:103E4E00D5071A305502031C2D2F2E2FDE2E4C08AF
:103E5E004B044A0449040319352F362F552F50149D
:103E6E00552F0130C4000310C00DC10DC20DC30D7E
:103E7E00C40B3A2FD31F442F452F462F4014013029
:103E8E00C4000310D00DD10DD20DD30DC40B482F8D
:103E9E00FF30CE070318CF0AFF30CF07C21F582FAF
:103EAE00592F382FD501D31F5D2F5E2F7A2FFF305C
:103EBE005005C400FF305105C500FF305205C60045
:103ECE007F305305C70047084604450444040319D0
:103EDE00712F722F752FD501D50A7A2F401C782F8E
:103EEE00792F7A2F722F550803197E2F7F2FB02F1F
:103EFE000130C007003003180130C107003003182D
:103F0E000130C207003003180130C307431C902F45
:103F1E00912FB02F4008C4004108C5004208C600CA
:103F2E004308C7000130C800470DC70CC60CC50CAE
:103F3E00C40CC80B9B2F4708C3004608C200450897
:103F4E00C1004408C0000130CE070318CF0A00306C
:103F5E00CF074F08803AFF0080307F02031DB92F34
:103F6E00FF304E02031CBC2FBD2FCB2FFF30831210
:103F7E000313CE000030CF000030C3000030C2006B
:103F8E000030C1000030C000831203134F08803A86
:103F9E00FF0080307F02031DD62F01304E02031822
:103FAE00D92FDA2FE72F83120313CE01CF01003062
:103FBE00C3000030C2000030C1000030C000CD018F
:103FCE00831203134E08D400541CEE2FEF2FF12F43
:103FDE00C217F52F7F30C4004408C2055408C40030
:103FEE000310440CC3004D08C4004408C3049B2EA8
:0A3FFE000800FF3FFF3FFF3FFF3FB9
:04400E00D420FF3F7C
:00000001FF
